SAFREAENRT   ZIBAN DA0    R Z B N34463300E005000000                       E0017     WGE           ZIBAN                    052651110
SAFREAENRT   ZIRUD FZ0    R Z L S02280546E028044041                       E0012     U             ZIRUD                    052661011
SAFREAENRT   ZULAC HH0    R Z H N15013600E041010600                       E0027     U             ZULAC                    052670509
SAFREPDAUGDA               50D121PDAPC03010R   1001300UNLTD                     I                 GHA121016                052681901
SAFREPDAUHDA               20HIMADDAPC00040R050  0344507999230                  I                 HIMAD                    052691903
SAFREPDBBBDB               40GAPESDBPC00550R   100200006500230                  I                 GAPES                    052702106
